S010000041756667616265312E7372656338
S11300000C9434000C943E000C943E000C943E007E
S11300100C943E000C943E000C943E000C943E0064
S11300200C943E000C943E000C943E000C943E0054
S11300300C943E000C943E000C943E000C943E0044
S11300400C943E000C943E000C943E000C943E0034
S11300500C943E000C943E000C943E000C943E0024
S11300600C943E000C943E0011241FBECFEFD8E048
S1130070DEBFCDBF0E9493000C9498000C94000046
S113008084B18C6184B9089585B18B7F85B985B1BC
S1130090877F85B985B18F7E85B985B1846085B93F
S11300A02FEF83ED90E3215080409040E1F700C0B2
S11300B0000085B1886085B92FEF89E698E1215069
S11300C080409040E1F700C0000085B18B7F85B986
S11300D085B1877F85B985B18F7E85B985B180610A
S11300E085B92FEF83ED90E3215080409040E1F7F4
S11300F000C0000085B18B7F85B985B1877F85B944
S113010085B18F7E85B985B1886085B92FEF89E681
S113011098E1215080409040E1F700C0000008952C
S11301200E94440008950E9440000E949000FDCF68
S1070130F894FFCF6D
S9030000FC
