S01100007562756E6765696E732E7372656343
S11300000C9434000C943E000C943E000C943E007E
S11300100C943E000C943E000C943E000C943E0064
S11300200C943E000C943E000C943E000C943E0054
S11300300C943E000C943E000C943E000C943E0044
S11300400C943E000C943E000C943E000C943E0034
S11300500C943E000C943E000C943E000C943E0024
S11300600C943E000C943E0011241FBECFEFD8E048
S1130070DEBFCDBF0E9440000C948F000C940000A2
S113008084B18C6184B985B18B7F85B985B1877F53
S113009085B985B18F7E85B985B1846085B92FEF27
S11300A083ED90E3215080409040E1F700C00000D0
S11300B085B1886085B92FEF89E698E121508040A9
S11300C09040E1F700C0000085B18B7F85B985B110
S11300D0877F85B985B18F7E85B985B1806185B902
S11300E02FEF83ED90E3215080409040E1F700C072
S11300F0000085B18B7F85B985B1877F85B985B1CE
S11301008F7E85B985B1886085B92FEF89E698E13E
S1130110215080409040E1F700C00000B4CFF89433
S1050120FFCF0B
S9030000FC
