:100000000C9434000C9464000C9481000C943E0019
:100010000C943E000C943E000C943E000C94520054
:100020000C943E000C943E000C943E000C943E0058
:100030000C943E000C943E000C9440000C943E0046
:100040000C943E000C943E000C943E000C943E0038
:100050000C943E000C943E000C943E000C943E0028
:100060000C943E000C943E0011241FBECFEFD8E04C
:10007000DEBFCDBF0E94DC000C94DF000C940000BA
:100080001F920F920FB60F9211248F939F9395B1E9
:1000900080E1892785B99F918F910F900FBE0F90B6
:1000A0001F9018951F920F920FB60F9211248F93E5
:1000B0009F9395B180E1892785B99F918F910F908A
:1000C0000FBE0F901F9018951F920F920FB60F92B0
:1000D00011248F93EF93FF934A9B06C0EEE6F0E066
:1000E00080818D7F808305C0EEE6F0E080818260B4
:1000F0008083FF91EF918F910F900FBE0F901F9013
:1001000018951F920F920FB60F9211248F93EF93B1
:10011000FF934B9B06C0E0E7F0E080818D7F8083FA
:1001200005C0E0E7F0E0808182608083FF91EF917D
:100130008F910F900FBE0F901F90189584B1806122
:1001400084B984B1886084B985B18F7E85B98AB15C
:100150008B7F8AB98AB1877F8AB98BB184608BB96A
:100160008BB188608BB9E9E6F0E08081856080839F
:100170008DB383608DBB84B5826084BDE0EBF0E01D
:1001800080818260808385B5846085BDE1EBF0E08D
:1001900080818660808386E487BD89EF8093B30089
:1001A000EEE6F0E0808182608083E0E7F0E080812D
:1001B00082608083789408950E949E00FFCFF89417
:0201C000FFCF6F
:00000001FF
