S01400007369747A756E67332D70776D2E7372656348
S11300000C9434000C943E000C943E000C943E007E
S11300100C943E000C943E000C943E000C943E0064
S11300200C943E000C943E000C943E000C943E0054
S11300300C943E000C943E000C943E000C943E0044
S11300400C943E000C943E000C943E000C943E0034
S11300500C943E000C943E000C943E000C943E0024
S11300600C943E000C943E0011241FBECFEFD8E048
S1130070DEBFCDBF0E9464000C9476000C94000097
S113008080E090E00BC087BD2FEF31EE44E02150BB
S113009030404040E1F700C000000A968F3F9105D0
S11300A094F308958FEF90E00BC087BD2FEF31EEEE
S11300B044E0215030404040E1F700C000000A977E
S11300C01816190694F308958AB180648AB917BC86
S11300D084B5806884BD84B5836084BD85B5826041
S11300E085BD0E9440000E945200FBCFF894FFCFD0
S9030000FC
