S00E00007562756E67322E73726563C3
S11300000C9434000C943E000C943E000C943E007E
S11300100C943E000C943E000C943E000C943E0064
S11300200C943E000C943E000C943E000C943E0054
S11300300C943E000C943E000C943E000C943E0044
S11300400C943E000C943E000C943E000C943E0034
S11300500C943E000C943E000C943E000C943E0024
S11300600C943E000C943E0011241FBECFEFD8E048
S1130070DEBFCDBF0E9455000C945A000C940000C2
S113008084B1806284B91AB88FEF8BB985B180626C
S113009085B908954A9903C085B1806285B94B99A1
S11300A003C085B18F7D85B908950E9440000E94E8
S10B00B04A00FDCFF894FFCFD4
S9030000FC
