:100000000C9434000C9449000C9449000C94490061
:100010000C9449000C9449000C9449000C9449003C
:100020000C9449000C9449000C9449000C9449002C
:100030000C9449000C9449000C9449000C9449001C
:100040000C9449000C9449000C9449000C9449000C
:100050000C9449000C9449000C9449000C944900FC
:100060000C9449000C94490011241FBECFEFD8E036
:10007000DEBFCDBF11E0A0E0B1E0E2E5F1E002C0FB
:1000800005900D92A036B107D9F70E944B000C9451
:10009000A7000C940000CF93DF93CDB7DEB7C05616
:1000A000D1090FB6F894DEBF0FBECDBF80E6E0E009
:1000B000F1E0DE01119601900D928A95E1F740E0A2
:1000C00050E040C0FA01EE0FFF1FEE0FFF1FEE0FD2
:1000D000FF1F81E090E08C0F9D1FE80FF91F64B1B6
:1000E00081E090E09C01008002C0220F331F0A943F
:1000F000E2F7362F322B34B935B1232B25B964B151
:100100009C01028002C0220F331F0A94E2F7362FAF
:10011000322B34B935B12095232325B924B1BC0144
:10012000048002C0660F771F0A94E2F7068002C0BF
:10013000880F991F0A94E2F786238095822384B959
:100140004F5F5F4F4C3051050CF4BCCFB8CFF894E3
:02015000FFCFDF
:100152000000010002000300010000000200030091
:100162000100020000000300020001000000030081
:100172000200030000000100030002000000010071
:100182000000020001000300020000000100030061
:100192000100030000000200030001000000020051
:1001A2000000030001000200030000000100020041
:00000001FF
