:100000000C9434000C9449000C9449000C94490061
:100010000C9449000C9449000C9449000C9449003C
:100020000C9449000C9449000C9449000C9449002C
:100030000C9449000C9449000C9449000C9449001C
:100040000C9449000C9449000C9449000C9449000C
:100050000C9449000C9449000C9449000C944900FC
:100060000C9449000C94490011241FBECFEFD8E036
:10007000DEBFCDBF11E0A0E0B1E0E4E2F3E002C0FA
:1000800005900D92A030B107D9F70E944B000C9457
:1000900090010C94000084B1886084B985B18860B7
:1000A00085B984B1846084B985B18B7F85B984B109
:1000B0008C7F84B92FEF83ED90E3215080409040F6
:1000C000E1F700C0000084B1807F84B92FEF89E69A
:1000D00098E1215080409040E1F700C0000084B1D9
:1000E000816084B985B1816085B984B1826084B949
:1000F00085B18D7F85B984B1837F84B92FEF83ED7E
:1001000090E3215080409040E1F700C0000084B1AE
:10011000826084B985B1826085B984B1816084B917
:1001200085B18E7F85B984B1837F84B92FEF83ED4C
:1001300090E3215080409040E1F700C0000084B17E
:10014000826084B985B1826085B984B1846084B9E4
:1001500085B18B7F85B984B1867F84B92FEF83ED1C
:1001600090E3215080409040E1F700C0000084B14E
:10017000846084B985B1846085B984B1826084B9B2
:1001800085B18D7F85B984B1867F84B92FEF83EDEA
:1001900090E3215080409040E1F700C0000084B11E
:1001A000846084B985B1846085B984B1886084B97C
:1001B00085B1877F85B984B18C7F84B92FEF83EDBA
:1001C00090E3215080409040E1F700C0000084B1EE
:1001D000886084B985B1886085B984B1846084B948
:1001E00085B18B7F85B984B18C7F84B92FEF83ED86
:1001F00090E3215080409040E1F700C0000084B1BE
:10020000816084B985B1816085B984B1846084B925
:1002100085B18B7F85B984B1857F84B92FEF83ED5C
:1002200090E3215080409040E1F700C0000084B18D
:10023000846084B985B1846085B984B1816084B9F2
:1002400085B18E7F85B984B1857F84B92FEF83ED29
:1002500090E3215080409040E1F700C0000084B15D
:10026000826084B985B1826085B984B1886084B9BF
:1002700085B1877F85B984B18A7F84B92FEF83EDFB
:1002800090E3215080409040E1F700C0000084B12D
:10029000886084B985B1886085B984B1826084B989
:1002A00085B18D7F85B984B18A7F84B92FEF83EDC5
:1002B00090E3215080409040E1F700C0000084B1FD
:1002C000816084B985B1816085B984B1886084B961
:1002D00085B1877F85B984B1897F84B92FEF83ED9C
:1002E00090E3215080409040E1F700C0000084B1CD
:1002F000886084B985B1886085B984B1816084B92A
:1003000085B18E7F85B984B1897F84B92FEF83ED64
:1003100090E3215080409040E1F700C00000DFCE24
:04032000F894FFCF7F
:00000001FF
