S010000041756667616265322E7372656337
S11300000C9434000C9449000C9449000C9449005D
S11300100C9449000C9449000C9449000C94490038
S11300200C9449000C9449000C9449000C94490028
S11300300C9449000C9449000C9449000C94490018
S11300400C9449000C9449000C9449000C94490008
S11300500C9449000C9449000C9449000C944900F8
S11300600C9449000C94490011241FBECFEFD8E032
S1130070DEBFCDBF11E0A0E0B1E0E4EEF1E002C0EC
S113008005900D92A036B107D9F70E944B000C944D
S1130090F0000C94000040E050E042C0FA01EE0F82
S11300A0FF1FEE0FFF1FEE0FFF1FE050FF4F64B165
S11300B081E090E09C01008002C0220F331F0A946B
S11300C0E2F7362F322B34B935B1232B25B964B17D
S11300D09C01028002C0220F331F0A94E2F7362FDC
S11300E0322B34B935B12095232325B924B1BC0171
S11300F0048002C0660F771F0A94E2F7068002C0EC
S1130100880F991F0A94E2F786238095822384B985
S11301108FE493EC0197F1F700C000004F5F5F4F4D
S11301204C3051050CF4BACF9FE32DE083E091509D
S113013020408040E1F700C000004CE050E042C0A5
S1130140FA01EE0FFF1FEE0FFF1FEE0FFF1FE0502F
S1130150FF4F64B181E090E09C01008002C0220F57
S1130160331F0A94E2F7362F322B34B935B1232BDF
S113017025B964B19C01028002C0220F331F0A9486
S1130180E2F7362F322B34B935B12095232325B924
S113019024B1BC01048002C0660F771F0A94E2F701
S11301A0068002C0880F991F0A94E2F7862380957F
S11301B0822384B98FE493EC0197F1F700C0000027
S11301C041505109141615060CF4BACF9FE32DE0E3
S11301D083E0915020408040E1F700C000005BCFF5
S10701E0F894FFCFBD
S11301E400000100020003000100000002000300FB
S11301F401000200000003000200010000000300EB
S113020402000300000001000300020000000100DA
S113021400000200010003000200000001000300CA
S113022401000300000002000300010000000200BA
S113023400000300010002000300000001000200AA
S9030000FC
