:100000000C9434000C9449000C9449000C94490061
:100010000C9449000C9449000C9449000C9449003C
:100020000C9449000C9449000C9449000C9449002C
:100030000C9449000C9449000C9449000C9449001C
:100040000C9449000C9449000C9449000C9449000C
:100050000C9449000C9449000C9449000C944900FC
:100060000C9449000C94490011241FBECFEFD8E036
:10007000DEBFCDBF11E0A0E0B1E0EEE2F2E002C0F1
:1000800005900D92A036B107D9F70E944B000C9451
:1000900015010C9400002BE030E055C0F901EE0F83
:1000A000FF1FEE0FFF1FEE0FFF1FE050FF4F64B169
:1000B00081E090E0AC01008002C0440F551F0A941B
:1000C000E2F7462B44B965B1AC01008002C0440F91
:1000D000551F0A94E2F7462B45B964B1AC01028082
:1000E00002C0440F551F0A94E2F7462B44B955B19C
:1000F000BC01028002C0660F771F0A94E2F7462F08
:100100004095452345B944B1BC01048002C0660F47
:10011000771F0A94E2F7068002C0880F991F0A949D
:10012000E2F7862B8095842384B94FEF83EC99E026
:10013000415080409040E1F700C0000084B1807FD2
:1001400084B92150310933230CF0A8CF2FEF43EDB0
:1001500080E3215040408040E1F700C0000020E0F3
:1001600030E055C0F901EE0FFF1FEE0FFF1FEE0F3D
:10017000FF1FE050FF4F64B181E090E0AC010080D0
:1001800002C0440F551F0A94E2F7462B44B965B1EB
:10019000AC01008002C0440F551F0A94E2F7462BC1
:1001A00045B964B1AC01028002C0440F551F0A94E6
:1001B000E2F7462B44B955B1BC01028002C0660F7C
:1001C000771F0A94E2F7462F4095452345B944B17D
:1001D000BC01048002C0660F771F0A94E2F7068014
:1001E00002C0880F991F0A94E2F7862B809584231A
:1001F00084B99FEF43EC89E0915040408040E1F7A3
:1002000000C0000084B1807F84B92F5F3F4F2C3045
:1002100031050CF4A7CF9FEF23ED40E39150204030
:0E0220004040E1F700C0000036CFF894FFCF59
:10022E0000000100020003000100000002000300B4
:10023E0001000200000003000200010000000300A4
:10024E000200030000000100030002000000010094
:10025E000000020001000300020000000100030084
:10026E000100030000000200030001000000020074
:10027E000000030001000200030000000100020064
:00000001FF
