S010000041756667616265322E7372656337
S11300000C9434000C9449000C9449000C9449005D
S11300100C9449000C9449000C9449000C94490038
S11300200C9449000C9449000C9449000C94490028
S11300300C9449000C9449000C9449000C94490018
S11300400C9449000C9449000C9449000C94490008
S11300500C9449000C9449000C9449000C944900F8
S11300600C9449000C94490011241FBECFEFD8E032
S1130070DEBFCDBF11E0A0E0B1E0E6E0F2E002C0F7
S113008005900D92A036B107D9F70E94FE000C949A
S113009001010C940000FC0144B121E030E0C901ED
S11300A0008002C0880F991F0A94E2F7842B84B958
S11300B045B1C901008002C0880F991F0A94E2F774
S11300C0842B85B944B1C901028002C0880F991FED
S11300D00A94E2F7842B84B995B1A901028002C085
S11300E0440F551F0A94E2F7842F8095892385B91C
S11300F044B1B901048002C0660F771F0A94E2F785
S1130100C901068002C0880F991F0A94E2F7862B62
S11301108095842384B995B1A901048002C0440F59
S1130120551F0A94E2F7842F8095892385B985B1F8
S1130130068002C0220F331F0A94E2F72095282379
S113014025B90895CF93DF93C0E0D0E018C0CE0165
S1130150880F991F880F991F880F991F80509F4FF0
S11301600E944B002FEF83EC99E021508040904097
S1130170E1F700C0000084B1807F84B92196CC30BF
S1130180D1052CF3DF91CF910895CF93DF93CBE08A
S1130190D0E018C0CE01880F991F880F991F880FCF
S11301A0991F80509F4F0E944B002FEF83EC99E0E2
S11301B0215080409040E1F700C0000084B1807F6E
S11301C084B92197DD2334F7DF91CF9108950E94FC
S11301D0C5002FEF83ED90E3215080409040E1F77C
S11301E000C000000E94A2002FEF83ED90E3215095
S11301F080409040E1F700C0000008950E94E700AD
S1090200FDCFF894FFCFCE
S113020600000100020003000100000002000300D8
S113021601000200000003000200010000000300C8
S113022602000300000001000300020000000100B8
S113023600000200010003000200000001000300A8
S11302460100030000000200030001000000020098
S11302560000030001000200030000000100020088
S9030000FC
