S010000041756667616265322E7372656337
S11300000C9434000C9449000C9449000C9449005D
S11300100C9449000C9449000C9449000C94490038
S11300200C9449000C9449000C9449000C94490028
S11300300C9449000C9449000C9449000C94490018
S11300400C9449000C9449000C9449000C94490008
S11300500C9449000C9449000C9449000C944900F8
S11300600C9449000C94490011241FBECFEFD8E032
S1130070DEBFCDBF11E0A0E0B1E0EEEDF2E002C0E2
S113008005900D92A036B107D9F70E944B000C944D
S11300906D010C94000084B1886084B985B18860D6
S11300A085B984B1846084B985B18B7F85B984B105
S11300B08C7F84B985B18E7F85B985B18D7F85B9F3
S11300C02FEF83ED90E3215080409040E1F700C092
S11300D0000084B1807F84B92FEF89E698E1215034
S11300E080409040E1F700C000004BE050E06CC05D
S11300F0FA01EE0FFF1FEE0FFF1FEE0FFF1FE05080
S1130100FF4F64B181E090E09C01008002C0220FA7
S1130110331F0A94E2F7262B24B965B19C010080B1
S113012002C0220F331F0A94E2F7262B25B964B1CB
S11301309C01028002C0220F331F0A94E2F7262B8F
S113014024B935B1BC01028002C0660F771F0A943E
S1130150E2F7262F2095232325B964B1DC0104801E
S113016002C0AA0FBB1F0A94E2F79C01068002C0DA
S1130170220F331F0A94E2F72A2B2095262324B951
S113018035B1BC01048002C0660F771F0A94E2F700
S1130190262F2095232325B925B1068002C0880F78
S11301A0991F0A94E2F78095822385B92FEF83EC97
S11301B099E0215080409040E1F700C0000084B1F4
S11301C0807F84B94150510955230CF091CF2FEF12
S11301D083ED90E3215080409040E1F700C000009F
S11301E040E050E06CC0FA01EE0FFF1FEE0FFF1F5E
S11301F0EE0FFF1FE050FF4F64B181E090E09C01DF
S1130200008002C0220F331F0A94E2F7262B24B980
S113021065B19C01008002C0220F331F0A94E2F7EB
S1130220262B25B964B19C01028002C0220F331F22
S11302300A94E2F7262B24B935B1BC01028002C02E
S1130240660F771F0A94E2F7262F2095232325B9FA
S113025064B1DC01048002C0AA0FBB1F0A94E2F758
S11302609C01068002C0220F331F0A94E2F72A2B56
S11302702095262324B935B1BC01048002C0660F41
S1130280771F0A94E2F7262F2095232325B925B159
S1130290068002C0880F991F0A94E2F78095822392
S11302A085B92FEF83EC99E0215080409040E1F72D
S11302B000C0000084B1807F84B94F5F5F4F4C3031
S11302C051050CF490CF2FEF83ED90E32150804043
S11102D09040E1F700C0000008CFF894FFCF83
S11302DE0000010002000300010000000200030000
S11302EE01000200000003000200010000000300F0
S11302FE02000300000001000300020000000100E0
S113030E00000200010003000200000001000300CF
S113031E01000300000002000300010000000200BF
S113032E00000300010002000300000001000200AF
S9030000FC
