S010000041756667616265322E7372656337
S11300000C9434000C943E000C943E000C943E007E
S11300100C943E000C943E000C943E000C943E0064
S11300200C943E000C943E000C943E000C943E0054
S11300300C943E000C943E000C943E000C943E0044
S11300400C943E000C943E000C943E000C943E0034
S11300500C943E000C943E000C943E000C943E0024
S11300600C943E000C943E0011241FBECFEFD8E048
S1130070DEBFCDBF0E9440000C9456000C940000DB
S113008084B1836084B984B18B7F84B985B1816084
S113009085B985B18D7F85B984B1806284B985B114
S11300A08F7D85B985B1806285B9FFCFF894FFCF84
S9030000FC
