S01100007562756E67647265692E737265634E
S11300000C9434000C9440000C944F000C943E006B
S11300100C943E000C943E000C943E000C943E0064
S11300200C943E000C943E000C943E000C943E0054
S11300300C943E000C943E000C943E000C943E0044
S11300400C943E000C943E000C943E000C943E0034
S11300500C943E000C943E000C943E000C943E0024
S11300600C943E000C943E0011241FBECFEFD8E048
S1130070DEBFCDBF0E9470000C9473000C9400008E
S11300801F920F920FB60F9211248F9385B1806245
S113009085B98F910F900FBE0F901F9018951F92E6
S11300A00F920FB60F9211248F9385B18F7D85B96E
S11300B08F910F900FBE0F901F90189584B180629E
S11300C084B91AB88FEF8BB985B185B9E9E6F0E048
S11300D080818F6080838DB383608DBB7894089515
S10D00E00E945E00FFCFF894FFCFEA
S9030000FC
